:020000040800F2
:10000000F8080020D90100086B2500089923000892
:10001000692500087D0A0008E529000800000000A5
:100020000000000000000000000000003D26000865
:10003000770B0008000000006D2500083F2600082F
:10004000F3010008F3010008F3010008F3010008C0
:10005000F3010008F3010008F3010008F3010008B0
:10006000F3010008F3010008F3010008F3010008A0
:10007000F3010008F3010008F3010008F301000890
:10008000F3010008F3010008F3010008F301000880
:10009000F3010008F3010008F3010008F301000870
:1000A000F3010008F3010008F3010008F301000860
:1000B000F3010008F3010008F3010008F301000850
:1000C000F3010008F3010008F3010008F301000840
:1000D000F3010008F3010008F3010008F301000830
:1000E000F3010008F3010008F3010008F301000820
:1000F000F3010008F3010008F3010008F301000810
:10010000F3010008F3010008F3010008F3010008FF
:10011000F3010008F3010008F3010008F3010008EF
:10012000810A0008F3010008F3010008F301000848
:10013000F30100080000000000000000F3010008C7
:10014000F3010008F3010008F3010008F3010008BF
:10015000F3010008F3010008F3010008F3010008AF
:10016000F3010008F3010008F3010008F30100089F
:10017000F3010008F3010008F3010008000000008B
:1001800000000000F3010008000000000000000073
:10019000F30100080000000000000000F301000867
:1001A000000000000000000000000000F301000853
:1001B000F3010008F3010008F3010008F30100084F
:1001C000F3010008DFF80CD000F06CFB004800479A
:1001D000ED390008F8080020064880470648004727
:1001E000FEE7FEE7FEE7FEE7FEE7FEE7FEE7FEE7E7
:1001F000FEE7FEE7B9260008C50100082DE9F05F1B
:100200000546002092469B46884606468146402485
:100210001BE0284641464746224600F0A6F95346D1
:100220005A46C01A914110D311461846224600F092
:100230008DF92D1A67EB01084F4622460120002157
:1002400000F084F917EB00094E41201EA4F10104CF
:10025000DFDC484631462A464346BDE8F09FD2B22D
:1002600001E000F8012B491EFBD270470022F6E79F
:1002700010B513460A4604461946FFF7F0FF20461C
:1002800010BD421C10F8011B0029FBD1801A7047D9
:100290002DE9FE4F804681EA0300C00F0C46009016
:1002A00021F0004123F00045B8EB0200A94105D23E
:1002B0004046214690461C460B46024623F000402D
:1002C000104347D0270DC7F30A00C3F30A51029029
:1002D000401A019040286BDAC3F3130040F4801BEE
:1002E0000098924620B10023D2EB030A63EB0B0B7C
:1002F00001985946C0F14002504600F027F90646E1
:100300000D4650465946019A00F03FF910EB08009F
:100310006141002487EA115284EAE7731A4340D00E
:10032000009A62B3019A012A4FEA075215DC001BBA
:1003300061EB02014FF0004202EA0752CDE90042B0
:10034000001C41F5801132462B4600F076F903B0CF
:10035000BDE8F08F40462146F9E7001B61EB020142
:10036000001C41F5801300185B412018A2F500170E
:1003700047EB030140EAD570B6196D4111E06D08F5
:100380004FEA360645EAC0754FEA0752001B61EB9B
:100390000201001C41F5801149084FEA30000019A4
:1003A000514132462B4603B0BDE8F04F00F036B95C
:1003B0000098012240000023D0EB020263EBE073BF
:1003C000009821464FEAE074B8EB000061EB0401AD
:1003D000E9E783F000435BE781F0004158E72DE94E
:1003E000FE4F81EA030404F0004421F00041009430
:1003F0004FF0000B23F0004350EA01045ED052EAB4
:1004000003045BD0C3F30A54C1F30A552C44A4F28D
:10041000F3340194A0FB0254C1F3130141F48011A1
:10042000C3F3130343F4801301FB024400FB034EA8
:10043000840A970A44EA815447EA8357A4FB076871
:1004400002958D0A05FB07854FEA932C04FB0C549B
:100450002705029D4FEA065847EA1637B5EB08050F
:100460006EEB070C870E920E47EA811742EA831261
:10047000A7FB0201B6EB0B0164EB00042B0D43EA72
:100480000C335E1844EB1C50DA465146E7FB020180
:10049000C5F313044FEA0B3343EA14534FEA043213
:1004A000019C43EA0603A4F10C040294009CCDE9EC
:1004B00000B400F0C2F803B0BDE8F08F00200146A0
:1004C000F9E700F0004230F000400AD0C10D01F51C
:1004D0006071C0F3160042EA0151C208400711439F
:1004E000704700200146704701F0004330B421F00E
:1004F000004150EA010206D00A0DA2F56072C1F374
:100500001301002A02DC30BC00207047440F44EA8B
:10051000C104C100E01830BC00EBC25000F047B885
:1005200030B50B46014600202022012409E021FAC3
:1005300002F59D4205D303FA02F5491B04FA02F5C0
:100540002844151EA2F10102F1DC30BD202A04DB93
:10055000203A00FA02F1002070479140C2F12003D6
:1005600020FA03F3194390407047202A04DB203A15
:1005700021FA02F00021704721FA02F3D040C2F1C3
:1005800020029140084319467047202A06DBCB170A
:10059000203A41FA02F043EAE07306E041FA02F33E
:1005A000D040C2F12002914008431946704700290B
:1005B000A8BF7047401C490008BF20F001007047E9
:1005C00010B4B0FA80FC00FA0CF050EA010404BF49
:1005D00010BC704749B1CCF1200421FA04F411FA9F
:1005E0000CF118BF012121430843A3EB0C01CB1DE3
:1005F0004FEA00614FEA102042BF002010BC704754
:1006000000EBC35010440029A4BF10BC7047401C2D
:10061000490008BF20F0010010BC704710B5141E3F
:1006200073F1000408DA401C41F1000192185B41AB
:100630001A4301D120F0010010BD2DE9F04D924682
:100640009B4611B1B1FA81F202E0B0FA80F2203299
:100650009046FFF77BFF04460F4640EA0A0041EA56
:100660000B0153465A46084313D0114653EA010082
:1006700019D0C8F140025046FFF777FF05460E46F5
:10068000504659464246FFF761FF084305D0012016
:1006900004E020463946BDE8F08D0020054346EAD7
:1006A000E0762C4337430A986305E40AA0EB080080
:1006B0000022FD0A44EA47540A3002D500200146D0
:1006C000E9E7010510196941DDE9084500196941AB
:1006D000BDE8F04DA2E72DE9F04D81EA030404F0F6
:1006E000004B21F0004514464FF0000A23F0004172
:1006F00050EA050220D054EA01021DD0C5F30A5782
:100700000246C5F31303C1F31300C1F30A5640F4C4
:10071000801543F48013A7EB0608101BD64608F299
:10072000FD3873EB050002D308F1010801E09218CF
:100730005B41B8F1000F03DA00200146BDE8F08DFF
:1007400000204FF48011064684460EE0171B73EB21
:10075000050705D3121B63EB050306434CEA010CA6
:1007600049084FEA300092185B4150EA0107EDD189
:1007700052EA030012D082EA040083EA050108432A
:1007800005D0101BAB4106D20122002306E0002257
:100790004FF0004302E06FF0010253101AEB060025
:1007A0004CEB085110EB0A0041EB0B01BDE8F04D9A
:1007B000FFF734BF0EB5C10F80EAE0700844CA07E6
:1007C000002140F233438DE80E000A460B46FFF746
:1007D00034FF03B000BD70B5C1F30A5201F000450B
:1007E0000024C1F3130140F2FF3341F480119A4217
:1007F00001DA002070BD40F233439A42A2F2334244
:1008000003DC5242FFF7B1FE00E090402C43F1D0F0
:10081000404270BDC1F30A52C1F3130140F2FF33ED
:1008200041F480119A4202DA00200146704740F2FA
:1008300033439A42A2F2334202DC5242FFF795BEA2
:10084000FFF784BE30B5041E71F1000404DB4FF0E5
:100850000044404264EB0101141E73F1000405DB07
:100860001C464FF00043524263EB04038B4208BF27
:10087000824230BD30B5041E71F1000404DB4FF03C
:100880000044404264EB0101141E73F1000405DBD7
:100890001C464FF00043524263EB0403994208BFE9
:1008A000904230BD064C074D06E0E06840F0010381
:1008B00094E8070098471034AC42F6D3FFF786FC63
:1008C000C83B0008E83B000810B50246906B016C7D
:1008D00011F0500F05D0806BC16CBDE81040104680
:1008E0000847016C41F40071016401688A6812F0E4
:1008F000405F19D18269BAB9CA6A12F4700F03D085
:100900008A6812F4806F0FD14A6822F020024A6090
:10091000016C21F480710164016C11F4805F03D1DA
:10092000016C41F00101016400F0E6F910BD10B561
:10093000806B40210164416C41F00401416400F08E
:100940001CFA10BD10B5806B00F016FA10BD000047
:1009500049494A6822F440324A604A6843681A4367
:100960004A6001684A6822F480724A6001684A68F5
:10097000036942EA03224A6001684A6822F0407231
:100980004A6001684A6883681A434A6001688A6855
:1009900022F400628A6001688A68C3681A438A6028
:1009A000816A6FF07062D14214D001688A6822F0C7
:1009B00070628A6001688A68836A1A438A60016883
:1009C0008A6822F040528A6001688A68C36A1A43C2
:1009D0008A6009E001688A6822F070628A600168B2
:1009E0008A6822F040528A6001688A6822F0020216
:1009F0008A6001688A68836942EA43028A60016A00
:100A000089B101684A6842F400624A6001684A6834
:100A100022F460424A6001684A68436A5B1E42EA07
:100A200043324A6004E001684A6822F400624A6086
:100A30000168CA6A22F47002CA620168CA6A838BBA
:100A40005B1E42EA0352CA6201688A6822F400729D
:100A50008A6001688A68036B42EA43228A600168FF
:100A60008A6822F480628A6001688A68406942EA82
:100A7000802088607047000000230140FEE70000EE
:100A8000014800F091BA00009404002001680A4B6C
:100A9000CAB2103AA3FB02321209084B9B5CC36531
:100AA000032A04D96FF30901091D816502E06FF380
:100AB00009018165806D7047ABAAAAAA643B000852
:100AC000014600208A6A8B69002B0FD0B3F5005FC6
:100AD0001DD08AB3012A30D0022A2ED0032A04D195
:100AE000C96A11F0807F00D0012070471AB1012A35
:100AF00007D0022AF9D1C96A11F0807FF5D0012010
:100B00007047C96AB1F1C07FFAD1012070475AB16C
:100B1000012A0BD0022A07D0032AF7D1C96AB1F102
:100B2000C07FF3D10120704701207047C96A11F0DE
:100B3000807FFAD001207047FFE70120704710B492
:100B4000D0F800C0DCF8004024F48024CCF8004049
:100B5000D0F800C0CCF804308368402B05D003687F
:100B600099600068C26010BC704703689A600068B2
:100B7000C16010BC704770477047000038B44FF038
:100B8000000CCDF800C090F83C20012A1BD00122B7
:100B900080F83C200A680724092A17D90368DD6811
:100BA0000A3A02EB420204FA02F225EA0202DA6091
:100BB0000A788B680A3A02EB420293400268D468D2
:100BC0002343D36014E038BC0220704703681D69DA
:100BD00002EB420204FA02F225EA02021A610A78E2
:100BE0008B6802EB4202934002681469234313614D
:100BF0004A681F24072A15D203685D6B521E02EB58
:100C0000820204FA02F225EA02025A630A8893B2C7
:100C10000A79521E02EB820293400268546B23430E
:100C200053632CE00D2A15D203681D6BD21F02EB13
:100C3000820204FA02F225EA02021A630A8893B2D7
:100C40000A79D21F02EB820293400268146B23439D
:100C5000136314E00368DD6A0D3A02EB820204FAC2
:100C600002F225EA0202DA620A8893B20A790D3AA0
:100C700002EB820293400268D46A2343D362194A8A
:100C8000194B04689C4206D10C68122C03D154689D
:100C900044F48004546004689C421DD1134C0B68DA
:100CA000A34201D0112B17D1536843F400035360C2
:100CB0000968A14210D10E490E4A0968B1FBF2F150
:100CC00001EB810149000091009929B10099491E69
:100CD000009100990029F9D180F83CC038BC00206F
:100CE0007047000000230140002001401200001066
:100CF0002000002040420F0070B51A4CA168491C2A
:100D0000A1600068184988421FD12046217890EDE3
:100D1000030AC07819B3154DB8EE400A55F8200003
:100D200000EE900AF8EE600A02F01CFEBCEEC00A6B
:100D3000E17810EE100A45F82100E078401CC0B2BE
:100D4000E070642801D30020E07001206070BDE8ED
:100D50007040044902460C31054800F087B8054D43
:100D6000DAE700000000002000200140040300201A
:100D70005C000020740100207047704770B5044685
:100D80000025002C03D0206C002610B107E00120C4
:100D900070BD666484F83C60204600F01BF8206C4F
:100DA00010F0100F04D0012584F83C60284670BD77
:100DB000206C20F4885040F0020020642046FFF7A9
:100DC000C7FD6664206C20F0020040F00100206442
:100DD000EAE7000070B586B0064614216846FFF7C2
:100DE00045FA1D493068884234D11C480025016805
:100DF00041F480710160006800F48070059017482C
:100E00001438016841F0010101600068694600F092
:100E100001000590012000900320CDE90105104854
:100E200000F080FA104C0F48C4E900050015A560D9
:100E3000C4E90350400060618000C4E90605000178
:100E4000C4E90805204600F0A5F908B1FFF794FEB3
:100E5000B463A66306B070BD002001404438024070
:100E600000000240106402409404002038B504469B
:100E70000023009394F83C00012809D0012084F855
:100E80003C002068D0F808C01CF0010F02D018E028
:100E9000022038BDD0F808C04CF0010CC0F808C0E2
:100EA0003B48DFF8F0C00068B0FBFCF000EB40000E
:100EB0000090009828B10098401E009000980028EB
:100EC000F9D12068D0F808C01CF0010F5DD0D4F82B
:100ED00040C02CF0010C2CF4C06C4CF4807CC4F8A5
:100EE00040C0406810F4806F05D0206C20F40050A2
:100EF00040F480502064206C10F4805F04D0606C5B
:100F000020F00600606400E0636484F83C30224D09
:100F1000A36B2248D863A36B21481864A36B2148B4
:100F2000D86423686FF0220018602068436843F09B
:100F3000806343602068836843F480738360206823
:100F4000134600F14C0C0A466146A06B00F098F97C
:100F5000686810F01F0F0AD02068A0F18041B1F539
:100F6000903112D1816811F0405F0AD00DE0206805
:100F7000816811F0405F08D1816841F08041816053
:100F800003E0816841F080418160002038BD0000AD
:100F90002000002040420F0000230140C908000843
:100FA000450900082F0900082DE9F84304464FF0D1
:100FB0000008CDF8008076484FF416510068B0FB69
:100FC000F1F7A56D2E6894F85C00082101FA00F095
:100FD000304211D02068026812F0040F0CD0026871
:100FE00022F00402026094F85C0001FA00F0A860AC
:100FF000606D40F00100606594F85C004FF00109FD
:1010000009FA00F0304209D02168496911F0800FD7
:1010100004D0A860606D40F00200606594F85C1038
:1010200004208840304209D02168096811F0020F7D
:1010300004D0A860606D40F00400606594F85C1016
:1010400010208840304224D02168096811F0080F30
:101050001FD0A8602068016811F4802F0DD00068AF
:1010600010F4002F04D0A16C99B12046884710E0FD
:10107000216C71B1204688470BE0016811F4807F34
:1010800003D1016821F008010160216C09B12046FB
:10109000884794F85C1020208840304251D0216865
:1010A000096811F0100F4CD0A86094F8350005289D
:1010B0000DD02068016811F4802F32D0006810F440
:1010C000002F29D0E16B59B32046884739E02068CA
:1010D000016821F0160101602068416921F080015A
:1010E0004161206C08B9A06C20B12068016821F032
:1010F0000801016094F85C003F2101FA00F0A8604B
:1011000084F8348084F83590216D00293ED001B0F8
:101110002046BDE8F0430847616C09B12046884786
:101120000FE0016811F4807F07D1016821F0100100
:10113000016084F8348084F83590E16B09B1204671
:101140008847606D002821D0606D10F0010F15D028
:10115000052084F835002068016821F00101016054
:101160000098401C0090B84204D82068006810F035
:10117000010FF5D184F8348084F83590E16C0029B2
:1011800004D001B02046BDE8F0430847BDE8F8832D
:10119000200000202DE9F041044600F0D1F9054679
:1011A000DCB1002684F83460022084F83500206821
:1011B000016821F0010101602068006810F0010F52
:1011C00013D000F0BDF9401B052809D92020606527
:1011D000032084F83500BDE8F0810120BDE8F081EE
:1011E0002068006810F0010FEBD121680868234ADD
:1011F0001040A3686268D4F810C01A43E36843EA59
:101200000C031A4363691A43A3691A43E3691A4337
:10121000236A1A431043626A042A03D1236BE26AE9
:101220001A43104308602068406920F00701606A93
:1012300040EA0105012704280ED1A06A0543E06AAF
:1012400050B12046FFF73CFC30B14020606584F887
:1012500035700120BDE8F081206845612046FFF728
:1012600015FC94F85C103F2202FA01F1816066657A
:1012700084F835700020BDE8F08100003F8010F058
:1012800070B504460025A66D94F8340001280DD0F1
:10129000012084F8340094F835C00020BCF1010F1F
:1012A00006D084F834000225284670BD022070BDA7
:1012B0004FF0020C84F835C060652046FFF73FFC14
:1012C00094F85C003F2101FA00F0B06020680168EA
:1012D00041F0160101602068416941F080014161DF
:1012E000206C20B12068016841F00801016020688D
:1012F000016841F001010160D6E7000070B50446C5
:1013000000F01EF90546B4F1FF3F02D00448007812
:10131000044400F015F9401BA042FAD370BD000050
:10132000240000202DE9F84F0022DFF8F081DFF8DB
:10133000F091DFF8F0A14FF0030E0F27012303FA1D
:1013400002F50B682B40AB427DD1D1F804C0BCF153
:10135000020F02D0BCF1120F12D14FEAD20C00EBF7
:101360008C0CDCF820605407E40E07FA04FB26EA34
:101370000B06D1F810B00BFA04F43443CCF820403B
:1013800006684FEA420C0EFA0CF4A64391F804B03A
:101390000BF0030B0BFA0CFB4BEA060606604E68DB
:1013A000012E05D0022E03D0112E01D0122E11D104
:1013B0008668A643D1F80CB00BFA0CFB4BEA060684
:1013C0008660466826EA05050E79C6F30016964043
:1013D00035434560C56825EA04048D6805FA0CFCB0
:1013E0004CEA040CC0F80CC0D1F804C01CF0805FBB
:1013F00078D0D8F800C04CF4804CC8F800C0D8F8B9
:1014000000C00CF4804CCDF800C022F0030C0CF1AD
:10141000804505F59835D5F808C89407240F07FAD4
:1014200004F62CEA0606A0F1804CBCF5003C5FD027
:10143000A0F1804CBCF5013C5DD0A0F1804CBCF526
:10144000023C5BD000E04DE0A0F1804CBCF5033CD9
:1014500057D0A0F1804CBCF5043C55D0A0F1804C95
:10146000BCF5053C53D0A0F1804CBCF5063C51D0F6
:101470004FF0070C0CFA04FC4CEA060CC5F808C83F
:10148000D9F800C02CEA030C4C6814F4803F01D05A
:101490004CEA030CC9F800C0234CD4F800C02CEA75
:1014A000030C4D6815F4003F01D04CEA030CC4F85E
:1014B00000C01E4CD4F800C02CEA030C4D6815F493
:1014C000801F01D04CEA030CC4F800C0DAF800C059
:1014D0002CEA030C4C6814F4001F01D04CEA030CF6
:1014E000CAF800C0521C102AFFF428AFBDE8F88FDC
:1014F0004FF0000CBEE74FF0010CBBE74FF0020CC1
:10150000B8E74FF0030CB5E74FF0040CB2E74FF02B
:10151000050CAFE74FF0060CACE700004438024082
:10152000003C01400C3C0140043C0140083C0140AF
:10153000002A01D081617047090481617047000071
:10154000014880687047000024000020024881683C
:1015500002781144816070472400002010B50B48C8
:10156000016841F400710160016841F4806101602B
:10157000016841F480710160032000F083F80020CD
:1015800000F006F800F026F8002010BD003C0240F4
:1015900070B504460D4D4FF47A712878B1FBF0F028
:1015A0000B490968B1FBF0F000F0FAFC08B101202A
:1015B00070BD102C07D200222146501E00F02EF8DC
:1015C0006C60002070BD012070BD00002400002070
:1015D000200000200A4808B5016841F480410160FC
:1015E000006800F4804000900548001F016841F049
:1015F00080510160006800F08050009008BD00003C
:101600004438024000F01F01012202FA01F14009B2
:10161000800000F1E020C0F80011704710B4184BB2
:101620001B68C3F30223C3F1070CBCF1040F01D9FB
:101630004FF0040C1C1D072C01D2002300E0DB1E20
:10164000012404FA0CFCACF1010C0CEA01019940F4
:1016500004FA03F35B1E1A401143002808DA00F075
:101660000F0000F1E020090180F8141D10BC704744
:1016700000F1E020090180F8001410BC7047000060
:101680000CED00E000F00700064A11684FF6FF037A
:10169000194041EA002040F0FD7040F08060106089
:1016A000704700000CED00E02DE9F04704460D46C0
:1016B000002C13D0DFF85091D9F80000EFB200F001
:1016C0000F00A8420DD289F80070D9F8000000F090
:1016D0000F00A84205D00120BDE8F0870120BDE839
:1016E000F0872068494E10F0020F14D010F0040F5C
:1016F00003D0306840F4E0503060207810F0080FDC
:1017000003D0306840F4604030603068A16820F059
:10171000F00008433060207810F0010F3ED0606880
:101720003B49012808D002280DD003280BD00968B6
:1017300011F0020F28D00AE0096811F4003F06D129
:101740000120BDE8F087096811F0007F19D03168E9
:1017500021F0030108433060FFF7F2FE8046306855
:10176000616800F00C00B0EB810F17D041F2883AAD
:10177000FFF7E6FEA0EB0800504508D90320BDE8BE
:10178000F0870120BDE8F0870120BDE8F0873068D0
:10179000616800F00C00B0EB810FE9D1D9F80000CE
:1017A00000F00F00A8420AD989F80070D9F80000AB
:1017B00000F00F00A84202D00120BDE8F087207899
:1017C00010F0040F05D03068E16820F4E0500843C1
:1017D0003060207810F0080F06D03068216920F4BE
:1017E000604040EAC100306000F018F83168094AF2
:1017F000C1F30311515CC840074908600020FFF79E
:10180000C7FE0020BDE8F087003C024008380240D7
:1018100000380240543B00082000002010B5274843
:10182000006810F00C01264818D0264B042914D06B
:10183000254C082913D00C2910D1216801F03F0252
:10184000216811F4800F2AD02068C0F38810A0FB13
:1018500003010023FEF7D2FC29E0184610BD2168E1
:1018600001F03F02216811F4800F08D02068C0F316
:101870008810A0FB03010023FEF7C0FC07E02168ED
:101880000023C1F38811A1FB0001FEF7B7FC21681A
:10189000C1F30141491C4900B0FBF1F010BD2168C2
:1018A0000023C1F38811A1FB0001FEF7A7FC21680A
:1018B000C1F30271B0FBF1F010BD00000838024026
:1018C0000024F40040787D01043802402DE9F84FEF
:1018D00004464FF00C08207810F0010FFE4EA6F1E0
:1018E000040567D0301D016801F00C01042910D0F7
:1018F000016801F00C01082903D1316811F4800F4F
:1019000007D1006838EA00000DD1306810F4800F6C
:1019100009D0286810F4003F4CD06068002849D1F5
:101920000120BDE8F88F6068B0F5803F14D0B0F5B5
:10193000A02F16D0286820F480302860286820F472
:1019400080202860606810B3FFF7FAFD074628681A
:1019500010F4003F0ED02DE0286840F4803028605D
:10196000F0E7286840F480202860286840F4803040
:101970002860E7E7FFF7E4FDC01B642802D90320D5
:10198000BDE8F88F286810F4003FF3D012E0FFF7AD
:10199000D7FD0746286810F4003F0BD0FFF7D0FDB5
:1019A000C01B642802D90320BDE8F88F286810F412
:1019B000003FF3D12078C94F10F0020F4FF000091B
:1019C0005FD0C748016811F00C0F1CD0016801F00E
:1019D0000C01082903D1316811F4800F13D000687D
:1019E00038EA000003D1306810F4800F0BD0E068B3
:1019F00080B301203860FFF7A3FD8046286810F00F
:101A0000020F12D01EE0286810F0020F05D0E06827
:101A1000012802D00120BDE8F88F2868216920F054
:101A2000F80040EAC10028602BE0FFF789FDA0EB39
:101A30000800022802D90320BDE8F88F286810F0BA
:101A4000020FF2D02868216920F0F80040EAC100B6
:101A5000286016E0FFE7C7F80090FFF771FD8046A9
:101A6000286810F0020F0CD0FFF76AFDA0EB080009
:101A7000022802D90320BDE8F88F286810F0020F71
:101A8000F2D1207810F0080F35D09648DFF858A230
:101A90006169C1B101210160FFF752FD8046DAF8AA
:101AA000000010F0020F26D1FFF74AFDA0EB08005E
:101AB000022802D90320BDE8F88FDAF8000010F000
:101AC000020FF1D017E0C0F80090FFF739FD804613
:101AD000DAF8000010F0020F0DD0FFF731FDA0EB97
:101AE0000800022802D90320BDE8F88FDAF80000C8
:101AF00010F0020FF1D1207810F0040F71D04FF0E8
:101B000000087A48006810F0805F0AD177480168C1
:101B100041F080510160006800F0805000904FF06B
:101B20000108DFF8CCB1DBF8000010F4807F1BD196
:101B3000DBF8000040F48070CBF80000FFF700FDF8
:101B40008246DBF8000010F4807F0DD1FFF7F8FC2F
:101B5000A0EB0A00022802D90320BDE8F88FDBF8C9
:101B6000000010F4807FF1D0A068DFF888B1012870
:101B700018D005281DD0DBF8000020F00100CBF8BC
:101B80000000DBF8000020F00400CBF80000A068A3
:101B900040B3FFF7D5FC8246DBF8000010F0020FDF
:101BA00014D03EE0DBF8000040F00100CBF800006C
:101BB000EDE7DBF8000040F00400CBF80000DBF8B4
:101BC000000040F00100CBF80000E0E7FFF7B8FCB0
:101BD000A0EB0A0141F28830814204D90320BDE81C
:101BE000F88F26E005E0DBF8000010F0020FEDD0E2
:101BF00017E0FFF7A5FC8246DBF8000010F0020FAB
:101C00000FD0FFF79DFCA0EB0A0141F28830814222
:101C100002D90320BDE8F88FDBF8000010F0020FB6
:101C2000EFD1B8F1010F04D13048016821F08051A3
:101C30000160A069F0B32A49096801F00C01082984
:101C40006ED0022810D0C7F86090FFF779FC0446E8
:101C5000286810F0007F60D0FFF772FC001B02289C
:101C600057D90320BDE8F88FC7F86090FFF768FCEC
:101C70008046286810F0007F0CD0FFF761FCA0EBD5
:101C80000800022802D90320BDE8F88F286810F068
:101C9000007FF2D1216AE069A26A0843616A4FF0CD
:101CA000FF33890103EB520241EA0241084394F8F1
:101CB0002C1000E031E040EA016094F8301040EA76
:101CC0000170306001203866FFF73AFC044628684E
:101CD00010F0007F21D10FE004380240000047429D
:101CE00008380240800E47427438024040380240B3
:101CF0000070004070380240FFF722FC001B0228F1
:101D000002D90320BDE8F88F286810F0007FE2D0E8
:101D100003E0286810F0007F9ED10020BDE8F88F16
:101D20000120BDE8F88F70B50446002C05D00025D1
:101D3000A56294F8510010B106E0012070BD84F84E
:101D40005050204600F030F8022084F851002068FE
:101D5000016821F040010160A168606822690843C0
:101D6000E1681143084361690843218B01F4007164
:101D70000843E1690843216A0843A16A08432168CE
:101D80000860A069042101EA1040616A08432168E3
:101D900048602068C16921F40061C1616565012066
:101DA00084F85100002070BD10B586B0044614219F
:101DB0006846FEF75BFA13492068884220D1124832
:101DC0000021026842F480520260006800F48050F2
:101DD00005900D481438026842F001020260006864
:101DE00000F001000590B02000900220CDE9010133
:101DF000032003900520049069460448FFF792FAF7
:101E000006B010BD003001404438024000000240DE
:101E10002DE9F84F04460D4693461E46002794F8D8
:101E2000500001280DD04FF0010A84F850A0FFF7B0
:101E300087FB804694F85100B946012804D0022758
:101E4000A6E00220BDE8F88FDDB1BBF1000F18D08D
:101E5000032084F85100C4F854902563A4F834B0EA
:101E6000A4F836B0C4F83890A4F83C90A4F83E909A
:101E7000C4F84490C4F84090A068B0F5004F02D078
:101E800006E0012784E02068016841F48041016098
:101E90002068016811F0400F03D1016841F0400152
:101EA0000160E068B0F5006F05D0606868B3E08E4F
:101EB00001282AD030E0606810B1E08E012806D1F8
:101EC00021682888C860AD1CE08E401EE086E08E48
:101ED00080B32068816811F0020F06D02988C160A4
:101EE000AD1CE08E401EE0860BE046B1B6F1FF3F30
:101EF00007D0FFF725FBA0EB0800B04201D3032772
:101F000046E0E08E0028E4D124E0216828780873B8
:101F10006D1CE08E401EE086E08E58B1206881681E
:101F200011F0020F07D0297801736D1CE08E401E5E
:101F3000E0860CE00EE046B1B6F1FF3F07D0FFF7B8
:101F4000FFFAA0EB0800B04201D3032720E0E08EA7
:101F50000028E3D13346012202212046CDF800803B
:101F600000F017FB08B1032712E042463146204635
:101F700000F0FDFA18B101272020606508E0A06894
:101F800018B92068C16880680090606D00B10127B1
:101F900084F851A084F850903846BDE8F88F0000CE
:101FA000401EB0F1807F01D3012070474FF0E02147
:101FB0004861044AF0201070002088610720086101
:101FC0000020704723ED00E090F83820012A2FD040
:101FD000012280F83820CA680023D1F808C022F412
:101FE000407242EA0C02D1F804C022F4806242EA54
:101FF0000C02D1F800C022F4006242EA0C02D1F8CF
:1020000010C022F4805242EA0C02D1F814C022F42B
:10201000005242EA0C02896922F480420A4322F407
:10202000004211430268516480F838300020704744
:102030000220704710B490F83820012A2AD00123DA
:1020400080F83830022280F839200268D2F804C0C3
:102050002CF0700CC2F804C00268D2F804C00C68FE
:102060004CEA040CC2F804C00268D2F808C02CF094
:10207000800CC2F808C00268D2F808C049684CEA6F
:102080000101916080F83930002180F8381010BCCF
:102090000020704710BC0220704710B50446002C89
:1020A00003D094F8390010B107E0012010BD0020E2
:1020B00084F83800204600F00DF8022084F839003A
:1020C000211D206800F022FB012084F83900002047
:1020D00010BD000008B50068B0F1804F08D1054878
:1020E000016841F001010160006800F0010000900A
:1020F00008BD00004038024070B5044694F838002E
:10210000012818D0012584F83850022084F83900BD
:102110002068826822F0770222F47F428260086899
:1021200050283AD00EDC20285FD006DC002852D0A0
:10213000102863D154E0022070BD30285AD04028C6
:102140005CD13EE0602832D070280CD0B0F5805FC2
:1021500003D0B0F5005F51D113E02068816821F011
:10216000070181604AE0CB684A688968206800F00E
:1021700031FB2068816821F0770141F077018160AF
:102180003CE0CB684A688968206800F023FB20683F
:10219000816841F48041816030E0CA684968206804
:1021A00000F0FBFB5021206800F01FFB26E0CA680E
:1021B0004968206800F004FC6021206800F015FBED
:1021C0001CE0CA684968206800F0E7FB40212068ED
:1021D00000F00BFB12E00021206800F006FB0DE090
:1021E0001021206800F001FB08E02021206800F0A9
:1021F000FCFA03E03021206800F0F7FA84F8395047
:10220000002084F8380070BD10B586B00446142153
:102210006846FEF72BF80E492068884216D10D4813
:102220000021026842F001020260006800F0010033
:1022300005904FF4407000900220CDE9010101208B
:10224000CDE9031069460448FFF76CF806B010BDED
:1022500000000140303802400000024070B50446E2
:102260000D4694F8380001280DD0012684F8386016
:10227000022084F8390042B1042A1AD0082A2DD04D
:102280000C2A53D13EE0022070BD2946206800F0A0
:10229000B4FA2068816941F0080181612068816990
:1022A00021F004018161206881692A6911438161FB
:1022B0003CE02946206800F0D4FA2068816941F4A6
:1022C000006181612068816921F4806181612068F9
:1022D00081692A6941EA0221816127E02946206853
:1022E00000F0F7FA2068C16941F00801C161206877
:1022F000C16921F00401C1612068C1692A691143E3
:10230000C16113E02946206800F01BFB2068C16909
:1023100041F40061C1612068C16921F48061C1613B
:102320002068C1692A6941EA0221C16184F83960E3
:10233000002084F8380070BD10B50446002C03D08E
:1023400094F8390010B107E0012010BD002084F896
:102350003800204600F00CF8022084F83900211DD6
:10236000206800F0D3F9012084F83900002010BD66
:1023700008B500680649884208D10648016841F05E
:1023800001010160006800F00100009008BD00003C
:102390000000014044380240FEE700007FB5002401
:1023A0000F480094019402940C490394C0E900146E
:1023B00084600125046185610A490462C0E90A1448
:1023C000C56105634561C460FEF7D8FCCDE90045F1
:1023D000694603480294FEF7D1FB7FBD002001400F
:1023E0005C0000200100000F30B587B01421684662
:1023F000FDF73CFF11480024016841F00401016031
:10240000016801F004010591016841F001010160DA
:1024100000680B4D00F0010005902246032128467C
:10242000FFF786F8032000900120CDE901046946FA
:1024300028460394FEF776FF07B030BD30380240DF
:10244000000802400C480B494FF4802201604FF411
:102450008271416000218160C1600161C0E90512A3
:102460003022C0E90721416281620A21C162FFF77F
:102470005ABC000000300140A400002030B591B0EB
:1024800000240E941C2168460F94FDF7EFFE1C21DA
:1024900007A8FDF7EBFE1F481D4901604FF4C86116
:1024A000C0E901141321C0E903144461FFF744FF9C
:1024B0000E940EA917480F94FFF7BCFD6020009002
:1024C0000225CDE901540394049405940022694641
:1024D00010480694FFF7C2FE702000901220CDE94C
:1024E0000105042269460B48FFF7B8FE07940894DB
:1024F000099428030A94CDE90B4007A905480D94D7
:10250000FFF762FD0348FFF77FFE11B030BD00000A
:1025100000000140FC00002010B586B000241148E6
:10252000009401940294039404944FF08041059424
:1025300001600F21C0E901144FF6FE71C0E90314D8
:10254000FFF7ABFD4FF48050009069460548FFF758
:10255000D3FD049404A903480594FFF76BFD06B06E
:1025600010BD000038010020FEE77047704738B505
:1025700004460B46009200228021204600F009F814
:1025800028B1606D40F020006065032038BD002058
:1025900038BD2DE9F0410446069E884617461D4683
:1025A0002068806838EA000015D00020B84240D08A
:1025B000B5F1FF3F35D025B1FEF7C2FF801BA84221
:1025C0002FD32068416821F0E00141606068B0F5D8
:1025D000827F02D00DE00120E8E7A068B0F5004F4F
:1025E00002D0B0F5806F04D12068016821F040016D
:1025F0000160A06AB0F5005F0AD1206801684DF65D
:10260000FF72114001602068016841F400510160CF
:10261000012084F85100002084F850000320BDE818
:10262000F0812068806838EA000005D00020B842B8
:10263000BED10020BDE8F0810120F8E77047FEF729
:1026400085BF000010B594B034216846FDF70EFE3A
:1026500014210DA8FDF70AFE15480024016841F079
:1026600080510160006800F08050129011480168AC
:1026700021F4404141F4804101600068069400F477
:1026800040401290022000900120039010200490FE
:102690006846FFF71BF90F20CDE90D040F94109445
:1026A00000210DA81194FEF7FFFF14B010BD00002B
:1026B00040380240007000401048016841F4700149
:1026C00001600F48016841F0010101600C4A0021DE
:1026D0000832116002680B4B1A400260031D0A4A5F
:1026E0001A60026822F48022026005480C30016002
:1026F00002495806803908607047000088ED00E004
:1027000000380240FFFFF6FE10300024F0B40268EB
:102710002B4BDFF8B0C02C4D2C4E2D4C98420AD0DC
:10272000B0F1804F07D0604505D0A84203D0B04239
:1027300001D0A04203D122F070024F683A43984280
:1027400028D0B0F1804F25D0604523D0A84221D0B9
:10275000B0421FD0A0421DD0A0F1804CBCF5A03CDF
:1027600018D0A0F1804CBCF5A23C13D0A0F1804C55
:10277000BCF5A43C0ED0A0F1804CBCF5C05C09D0E7
:10278000A0F1804CBCF5E05C04D0A0F1804CBCF51D
:10279000005C05D122F44072D1F80CC04CEA020270
:1027A00002608A68C2620A688262984201D0A042CE
:1027B00001D10969016301214161F0BC704700004A
:1027C000000001400004004000080040000C0040F0
:1027D00000040140D0F808C02CF47F4C42EA0322E8
:1027E000114341EA0C0181607047826822F0700257
:1027F000114341F007018160704710B4026A22F072
:1028000001020262036A4268D0F818C02CF0700C12
:102810002CF0030C0C6844EA0C0C23F002038C68C7
:102820002343A0F18044B4F5803404D0A0F1804467
:10283000B4F582340DD123F00803CC68234323F090
:10284000040322F4807222F400724C6922438C69E2
:1028500022434260C0F818C049684163036210BC5B
:10286000704710B4026A22F010020262036A4268E2
:10287000D0F818C02CF4E04C2CF4407C0C684CEAE6
:10288000042C23F020038C6843EA0413A0F1804455
:10289000B4F5803404D0A0F18044B4F5823410D172
:1028A00023F08003CC6843EA041323F0400322F4AE
:1028B000806222F400624C6942EA84028C6942EA36
:1028C00084024260C0F818C049688163036210BC8A
:1028D000704710B4026A22F480720262036A42688E
:1028E000D0F81CC02CF0700C2CF0030C0C6844EADF
:1028F0000C0C23F400738C6843EA0423A0F1804499
:10290000B4F5803404D0A0F18044B4F5823410D101
:1029100023F40063CC6843EA042323F4806322F4A5
:10292000805222F400524C6942EA04128C6942EA55
:1029300004124260C0F81CC04968C163036210BC45
:10294000704710B4026A22F480520262D0F820C0AC
:102950004268C36923F4E04323F440730C6843EAFC
:1029600004232CF4005C8C684CEA043CA0F1804405
:10297000B4F5803404D0A0F18044B4F5823404D19D
:1029800022F480424C6942EA84124260C361496881
:102990000164C0F820C010BC7047036AD0F820C0A2
:1029A0002CF0010CC0F820C0D0F818C02CF0F00CAE
:1029B0004CEA021223F00A03194382610162704754
:1029C000036A23F010030362D0F818C0036A2CF4E2
:1029D000704C4CEA023223F0A00343EA01118261F9
:1029E00001627047FEE700000FB41CB502460020EC
:1029F00007AC00290BD0491ECDE90021054B6A46E2
:102A00002146069800F04CFB009A002111701CBC76
:102A10005DF814FBCF37000803B40198410000981B
:102A200050EAC12018BF04204A0D18BF40F0010031
:102A300040F2FF72B2EB515F08BF40F00200012884
:102A400008BF052002B0704770B52DED020B2DEDCB
:102A50000A8B82B00D98C40F20F00045AE48854225
:102A600048D3AE48854219D30C99C5F313000843E7
:102A700009D09DED0C0B02B0BDEC0A8B02B0BDE895
:102A8000704000F009BA002C14BF9FEDA50B9DED1E
:102A90000C0B02B0BDEC0A8B02B070BD9FEDA20B17
:102AA00053EC102B9DED0C0B51EC100BFDF7E2FEDF
:102AB0000AD2022000F02CFA02B0BDEC0A8B02B060
:102AC000BDE8704000F0F4B99FED990B53EC102B6A
:102AD0009DED0C0B51EC100BFDF7B4FE0AD2022059
:102AE00000F016FA02B0BDEC0A8B02B0BDE87040EF
:102AF00000F0EEB990489FED92BBA8425CD292489C
:102B0000854219D29148784400EBC40090ED000B47
:102B100053EC102B9DED0C0B51EC100BFDF759FCF9
:102B200041EC1A0B8A48784400EBC40090ED009BFE
:102B3000C4F10100041B36E09FED870B53EC102B12
:102B40009DED0C0B51EC100BFDF749FC41EC100B0B
:102B50008348784400EBC40090ED001B51EC100B4F
:102B600053EC112BFDF794FBFDF735FE0446FDF702
:102B700021FE41EC180B9FED7C0B53EC102BFDF765
:102B80002EFC9DED0C1B53EC112BFDF725FC41ECAD
:102B90001A0B9FED770B51EC180B53EC102BFDF734
:102BA0001EFC41EC190B51EC1A0B53EC192BFDF7E1
:102BB00010FCCDE90C011BE06F48854217D29FED58
:102BC000700B53EC102B9DED0C0B51EC100BFDF723
:102BD0005FFB53EC1B2BFDF74DFE08D29DED0C0B5C
:102BE00053EC1B2B51EC100BFDF752FB6EE0002455
:102BF0009DED0C0B53EC102B51EC100BFDF7EFFB84
:102C000041EC180B60480521B0EE480AF0EE680A66
:102C1000784400F0C5F853EC182B51EC100BFDF77D
:102C2000DEFB9DED0C1B53EC112BFDF7D5FB41ECAE
:102C3000180B9FED570B5CB353EC182B51EC100B9A
:102C4000FDF7C7FB9DED0C0B41EC1C0B53EC182B57
:102C500051EC100BFDF7C3FB53EC1C2BFDF73BFDB8
:102C600053EC192BFDF7B8FB53EC1A2BFDF7B1FB16
:102C700053EC1B2BFDF7B0FBCDE900016FF47F7027
:102C8000844226DB01EB045001909DED000B00E730
:102C900053EC102B51EC180BFDF79BFB9DED0C0B2F
:102CA00041EC190B53EC182B51EC100BFDF797FB73
:102CB00053EC192BFDF70FFD9DED0C1B53EC112B65
:102CC000FDF787FB53EC1B2BFDF786FB41EC100B4C
:102CD000DFE608464FF07A5101EB04519FED2E0BD1
:102CE000084453EC102B01909DED000B51EC100BA0
:102CF000FDF775FB0D4645EC100B044651EC100B2F
:102D0000FFF78AFE042808BF00F0E2F845EC104BFC
:102D1000BFE6000000000000422E86400000F07F69
:102D20000000000000000000EF39FAFE422E86404D
:102D300051302DD5104987C0422ED63F00000000EB
:102D4000000000000000F03FB2A2F03F761000004B
:102D50006610000000000000FE822B654715F73F5B
:102D60001A100000000000000000E0FE422EE63FC6
:102D7000763C7935EF39EA3D0000303E0000000036
:102D80009C7500883CE4377E8C0F0000000000003A
:102D90000000000000000040000000000000700182
:102DA00070B504462DED028B4D1E00EBC500B0EE54
:102DB000408AF0EE608A90ED000B35F0060017D0E7
:102DC00053EC182B51EC100BFDF709FB41EC100BE9
:102DD0006D1E04EBC50090ED001B51EC100B53EC85
:102DE000112BFDF755FA41EC100B35F00600E7D139
:102DF000022D36D0042D1CD0062D1CBFBDEC028B3D
:102E000070BD53EC182B51EC100BFDF7E8FA94ED64
:102E10000A1B53EC112BFDF73BFA53EC182BFDF773
:102E2000DEFA94ED081B53EC112BFDF731FA41EC5F
:102E3000100B53EC182B51EC100BFDF7D0FA94ED5E
:102E4000061B53EC112BFDF723FA53EC182BFDF75F
:102E5000C6FA94ED040B53EC102BFDF719FA41EC74
:102E6000100B53EC182B51EC100BFDF7B8FA94ED46
:102E7000021B53EC112BFDF70BFA53EC182BFDF74B
:102E8000AEFA94ED001B53EC112BFDF701FABDECEB
:102E9000028B41EC100B70BD10B553EC102B51ECB4
:102EA000100BFDF7F5F941EC100B10BD0000000010
:102EB0009FED050B10B553EC102B51EC100BFDF7EB
:102EC0008EFA41EC100B10BD0000000000000070F5
:102ED0009FED050B10B553EC102B51EC100BFDF7CB
:102EE0007EFA41EC100B10BD000000000000001045
:102EF00002E008C8121F08C1002AFAD170477047C3
:102F0000002001E001C1121F002AFBD17047000020
:102F10000149086070470000300000202DE9FF5F84
:102F200082B00021DDE90430020DDDF840B003433A
:102F300018D044F61050A2F2FF32424315141198F3
:102F400001281FD0A5EB0B00401C5FEA000A4FF0E0
:102F500000064E4FDFF83891B046504615D5CAF1FD
:102F6000000413E0119801244AA3012801D16FEA5B
:102F70000B010298119AC0E90031C0E9024206B083
:102F8000BDE8F09FCBF10000DFE704460021404A96
:102F9000491842EB0450CDE9001012E0E00707D0D9
:102FA00032463B4640464946FDF719FA8046894677
:102FB00032463B4610461946FDF711FA06460F46C3
:102FC0006410002CEAD1DDE90401DDE90023BAF147
:102FD000000F06DAFDF703FA42464B46FDF7FFF90C
:102FE00005E0FDF778FB42464B46FDF774FB0446CF
:102FF0000E460022284BFDF73DFC03D84FF0FF3072
:10300000014607E00022254B20463146FDF740F9F6
:10301000FDF700FC102409E0002C0ADB0A22002343
:10302000FDF7ECF8039B30321A55641E50EA01029A
:10303000F2D1641C039AC4F111031444119A012AB9
:1030400003D0012208430DD10AE0084304D0002038
:103050004FF0110B119072E7A3EB0B056D1E0DE005
:103060005B4504DD4FF0000205F1010504E003DAE1
:103070004FF00002A5F10105002AECD00298119949
:10308000C0E90231C0E9004579E7000000001440C2
:103090000000F03F300000000000F0430000E03F7F
:1030A0002DE9FF4F95B09B468946064600250FE265
:1030B000252877D100242746F84A0121059400E00D
:1030C000044316F8013F203B01FA03F01042F7D108
:1030D00030782A2811D06FF02F033078A0F1300219
:1030E000092A16D8059A44F0020402EB820203EB87
:1030F00042021044761C0590EFE759F8042B059224
:10310000002A03DA504244F40054059044F00204CB
:10311000761C30782E2816D116F8010F44F00404DE
:103120002A280DD06FF02F023078A0F13003092B40
:1031300009D807EB870302EB4303C718761CF3E7B4
:1031400059F8047B761C30786C280FD006DC4C28AC
:1031500017D068280DD06A2814D104E0742810D044
:103160007A280FD10DE044F400140AE044F48014EE
:1031700001E044F440147278824202D104F58014D4
:10318000761C761C307866280BD013DC582877D054
:1031900009DC002875D04528F6D04628F4D0472809
:1031A0001AD19DE118E0632835D0642879D06528CC
:1031B00012D195E1702873D008DC6728F1D0692816
:1031C0006FD06E280DD06F2806D1B5E073282CD0B3
:1031D000752875D0782874D05A46179990476D1C79
:1031E00075E1C4F30250022809D003280DD0D9F8A4
:1031F000001004280DD00D6009F1040967E1D9F829
:103200000010EA17C1E90052F6E7D9F800100D8066
:10321000F2E70D70F0E719F8041B8DF8001000209C
:103220008DF80100EA46012003E059F804AB4FF0A5
:10323000FF3061074FF0000102D40DE008F10101F9
:103240008846B9420FDA8045F8DB1AF808100029E1
:10325000F4D108E008F1010188468142FADB1AF84E
:1032600008100029F6D105985B46A0EB0807214617
:103270003846179A00F094FA284400EB080507E056
:103280004DE029E10DE01AF8010B5A4617999047D5
:10329000B8F10108F7D25B4621463846179A13E188
:1032A00042E00A220092C4F302524FF0000A022ABE
:1032B00008D059F804CB032A4FEAEC710AD00DE08C
:1032C00029E02AE009F1070121F00702F2E802C132
:1032D000914609E00FFA8CFC4FEAEC71042A03D105
:1032E0004FFA8CFC4FEAEC71002907DA0A460021FC
:1032F000DCF1000C61EB02012D2202E0220504D575
:103300002B228DF80420012203E0E20701D02022C5
:10331000F7E7904659E00A2102E010220DE0102163
:103320004FF0000A00910BE010224FF0000A44F029
:1033300004040827009203E008224FF0000A0092DC
:10334000C4F30252022A05D059F804CB0021032A03
:1033500008D009E009F1070121F00702F2E802C1F3
:10336000914605E01FFA8CFC042A01D10CF0FF0CF9
:103370004FF00008220728D5702806D0009B83F064
:10338000100353EA0A0305D00EE040228DF8042012
:10339000012208E05CEA010206D030228DF8042008
:1033A0008DF8050002229046009B83F0080353EA43
:1033B0000A030AD15CEA010201D1620705D5302275
:1033C0008DF804204FF001087F1E582804D034A047
:1033D00003900EA802900DE036A0F9E75346604630
:1033E000009AFCF70BFF84460398825C0298401E0B
:1033F000029002705CEA0100F0D1029806A9081A56
:1034000000F1200A600702D524F4803400E001278F
:10341000574502DDA7EB0A0000E0002000EB0A019F
:10342000009005984144401A0590E00306D45B469D
:103430002146179A059800F0B3F90544002706E0E5
:1034400001A85A46C05D179990476D1C7F1C4745DF
:10345000F6DBE0030CD55B462146179A059800F091
:103460009FF9054404E030205A46179990476D1C97
:103470000099481E00900029F5DC08E002980299A6
:103480005A460078491C0291179990476D1CBAF171
:103490000001AAF1010AF1DC65E100000928010040
:1034A00030313233343536373839616263646566BA
:1034B000000000003031323334353637383941427C
:1034C000434445460000000000F058F90544761CCE
:1034D000307800287FF4ECAD19B02846BDE8F08FB5
:1034E000620700D4062709F1070222F0070CFCE866
:1034F0000223E14603F000485FEA080C02D00FF215
:10350000702C0DE05FEA045C02D50FF2682C07E036
:103510005FEAC47C02D00FF2602C01E0AFF2700CC5
:103520004FF0FF3823F00043CDF850C065280CD091
:1035300006DC452809D046281DD047283DD13DE06E
:10354000662818D067287ED138E00021112F01DBD2
:10355000112000E0781CCDE9000106A90EA8FFF7B4
:10356000DDFCDDE90F010E9A03910021009207F1C5
:10357000010A04914DE04FF000400097CDE90110A1
:1035800006A90EA8FFF7CAFCDDE90F0203920E9B05
:1035900011990022DDF80CA00093049211B9791C56
:1035A00000EB010AB7EB0A0004D4C0F1FF3007F1C9
:1035B000010A0490AAEB0700019044E0012F00DA11
:1035C00001270021112F01DD112000E03846CDE94F
:1035D000000106A90EA8FFF7A1FCDDE90F010E9A74
:1035E0000391002104910092BA4621070CD403995B
:1035F000514500DA8A46BAF1010F05DD009AAAF1B9
:103600000101515C302908D0B84202DA10F1040FF0
:1036100006DA0121CDE9011015E0AAF10101E9E77F
:10362000002805DC049901440491AAEB000102E0A2
:10363000411C514500DD8A460499401A401C019006
:103640004FF000400290200704D40198504501DB60
:10365000CDF8048000208DF84F0002980DF14F073F
:10366000B0F1004F25D02B200E9002984FF00208A9
:1036700000280CDA404202902D200E9007E00A212B
:103680000298FCF74DFF3031029007F8011DB8F1A8
:103690000001A8F10108F2DC02980028EFD1791EA0
:1036A0000E980870307800F0200040F0450007F8D0
:1036B000020D12A8C01B00F107081498007800B191
:1036C000012000EB0A01019801EBE07105984144EB
:1036D000401A401E0590E00306D45B462146179A27
:1036E000059800F05DF805441498007818B15A4622
:1036F000179990476D1CE00324D55B462146179A25
:10370000059800F04DF805441CE00498002807DBFC
:10371000DDE90301884203DD0098405C179901E070
:10372000179930205A469047049805F10105401C2E
:1037300004900198401E019004D12E205A461799FA
:1037400090476D1CBAF10001AAF1010ADDDC05E029
:1037500017F8010B5A46179990476D1CB8F10001F4
:10376000A8F10108F4DC5B462146179A0598ABE600
:103770002D0000002B000000200000002DE9F0418A
:10378000044600251E461746880404D405E0394641
:103790002020B0476D1C641EF9D52846BDE8F08195
:1037A0002DE9F041044600251E469046C80301D588
:1037B000302700E02027880404D505E0414638463C
:1037C000B0476D1C641EF9D52846BDE8F0814A68F3
:1037D000002A06D00A68531C0B6010704868401E0F
:1037E0004860704730B59FED200A9FED201A0025F4
:1037F000F0EE400A24E000BF50F8254001EE904A68
:10380000F8EE611A31EE800A01EE904AF8EE611A84
:10381000F4EEE01AF1EE10FA03DD00EE904AF8EE55
:10382000600A01EE904AF8EE611AF4EEC11AF1EE68
:1038300010FA03D201EE104AB8EE411A6D1CADB277
:103840008D42D9D301EE901AF8EE611A80EE212A4A
:1038500030EEC10AF6EE000A20EE200A82ED002AC0
:1038600083ED000A30BD000000000000FFFF7F7FF5
:1038700080EE202A10B52DED0A8B81EE210A82EE12
:10388000008A18EE100AFCF71CFE9FED281B53EC73
:10389000112BFCF7A4FD41EC190B18EE100AFCF7F4
:1038A00010FE41EC1A0B18EE100AFCF70AFE9FED11
:1038B000211B53EC112BFCF792FD53EC1A2BFCF758
:1038C0008EFD41EC1A0B18EE100AFCF7FAFD41ECE4
:1038D0001C0B18EE100AFCF7F4FD41EC1B0B18EE64
:1038E000100AFCF7EEFD9FED151B53EC112BFCF7B6
:1038F00076FD53EC1B2BFCF772FD53EC1C2BFCF7F5
:103900006EFD53EC1A2BFCF764FD53EC192BFCF7FE
:1039100060FD9FED0C1B53EC112BFCF7B9FCFCF781
:10392000E3FDBDEC0A8B00EE100A10BDD7A3703D7D
:103930000A5732405839B4C876BE144016FBCBEE55
:10394000C9C3D63F9A99999999195B4004490022B5
:103950000B685A6209684A6A8242FCD370470000C9
:103960003801002010B52DED088BF0EE608AB0EE26
:1039700040BA9FED1A0BFFF767F89FED1AAB51ECB9
:10398000100B53EC1A2BFCF727FDFCF7ADFD08EEEE
:10399000100A18EE900AFCF794FD41EC190B18EE92
:1039A000100AFCF78EFD53EC1A2BFCF715FD53ECB7
:1039B000192BFCF714FD28EE0B0A41EC190B10EE45
:1039C000100AFCF77EFD53EC192BFCF761FCFCF7A9
:1039D0008BFDBDEC088B00EE100A10BD3355302A6C
:1039E000A913D0BF000000000000F03F0EB5FDF7A6
:1039F000B5FDFEF727FEFEF7F7FC3F4800260168FD
:103A000041F4800101600068324600F480000290B9
:103A100031463820FDF702FE3820FDF7F3FDFEF7B2
:103A20002DFDFEF70FFDFEF7B9FCFEF775FD33A186
:103A30006423D1E90001CDE900010522694631483E
:103A4000FEF7E6F92F4801222F494838FDF70EFA14
:103A50002D4C2E4D4FF4A07740F2B4580C3C4FF053
:103A600001022078A0B302212846FDF761FDDC2089
:103A7000FDF744FC002202212846FDF759FD384697
:103A8000FDF73CFC26704046FFF760FF6078002899
:103A9000E5D01D4B1B4808331A1F6421D030FFF7B7
:103AA000A1FE194B642110331A1F1948FFF79AFE23
:103AB000D4ED061A94ED071AD4ED040A94ED050A24
:103AC000FFF7D6FE8DED020A00F024F86670C6E717
:103AD000FFE701212846FDF72BFDDC20FDF70EFC5A
:103AE000002201212846FDF723FD3846FDF706FC9C
:103AF00001202070C7E700003038024033323435EF
:103B000000000000A40000200C000020000802407B
:103B10000403002000B585B010EE100AFCF7D1FCBC
:103B2000CDE9000108A20A2102A8FEF75DFF02A864
:103B3000FCF7A7FB82B24FF47A7302A90448FEF7A0
:103B400067F905B000BD0000252E316600000000B9
:103B5000A400002000000000000000000102030497
:103B600006070809000610160006101600000000DF
:103B7000000000000000E03F000000000000E0BF87
:103B80000000E0FE422EE63F0000E0FE422EE6BFCF
:103B9000763C7935EF39EA3D763C7935EF39EABD47
:103BA0003E5555555555C53F93BDBE166CC166BFB4
:103BB0002CDE25AF6A56113FF16BD2C541BDBBBEAD
:103BC000D0A4BE726937663EE83B000800000020C2
:103BD00034000000F02E00081C3C000834000020D7
:103BE000C4080000002F00080000000000000000D2
:103BF00000000000000000000000000000000000C5
:103C000000000000000000000024F400010000009B
:0C3C100010000000000000000000000098
:04000005080001C529
:00000001FF
